:020000040000FA
:100000000C945E000C9486000C9486000C94860080
:100010000C9486000C9486000C9486000C94860048
:100020000C9486000C9486000C9486000C94860038
:100030000C9486000C9486000C9486000C94860028
:100040000C9470150C9486000C943E150C941815A5
:100050000C9486000C9486000C9486000C94860008
:100060000C9486000C948600000000080002010039
:100070000003040700000000000000000000000072
:10008000250028002B0000000000240027002A0083
:10009000040404040404040402020202020203032E
:1000A0000303030301020408102040800102040836
:1000B0001020010204081020BA15241911241FBEB3
:1000C000CFEFD8E0DEBFCDBF13E0A0E0B1E0E8EBBA
:1000D000F7E302C005900D92AE3AB107D9F724E0DC
:1000E000AEEAB3E001C01D92A33DB207E1F710E014
:1000F000CDE5D0E004C02197FE010E94B619CC35B1
:10010000D107C9F70E944A160C94CF1B0C9400002B
:100110008CBD9DBD089590E0FC01EC55FF4F2491EE
:1001200080579F4FFC018491882399F090E0880FBD
:10013000991FFC01EA57FF4FA591B491FC01E458C7
:10014000FF4F859194918FB7F894EC91E22BEC934B
:100150008FBF0895FC01818D928D08950895AF920F
:10016000BF92CF92DF92EF92FF920F931F93CF93A4
:10017000DF936C017B018B01040F151FEB015E0106
:10018000AE18BF08C017D10759F06991D601ED919B
:10019000FC910190F081E02DC6010995892B79F73A
:1001A000C501DF91CF911F910F91FF90EF90DF90EC
:1001B000CF90BF90AF900895FC01538D448D252FB3
:1001C00030E0842F90E0821B930B541710F0CF96F1
:1001D000089501970895FC01918D828D981761F023
:1001E000A28DAE0FBF2FB11D5D968C91928D9F5F3A
:1001F0009F73928F90E008958FEF9FEF0895FC0119
:10020000918D828D981731F0828DE80FF11D858DCB
:1002100090E008958FEF9FEF0895FC01918D228D5E
:10022000892F90E0805C9F4F821B91098F739927E3
:1002300008958AEE93E00E940D0121E0892B09F4D4
:1002400020E0822F089580E090E0892B29F00E9421
:10025000190181110C9400000895FC01A48DA80FD0
:10026000B92FB11DA35ABF4F2C91848D90E00196F8
:100270008F739927848FA689B7892C93A089B18918
:100280008C91837080648C93938D848D981306C0B9
:100290000288F389E02D80818F7D80830895EF921D
:1002A000FF920F931F93CF93DF93EC0181E0888F30
:1002B0009B8D8C8D98131AC0E889F989808185FF00
:1002C00015C09FB7F894EE89FF896083E889F989A2
:1002D00080818370806480839FBF81E090E0DF91A4
:1002E000CF911F910F91FF90EF900895F62E0B8DF7
:1002F00010E00F5F1F4F0F731127E02E8C8D8E11B2
:100300000CC00FB607FCFACFE889F989808185FF18
:10031000F5CFCE010E942D01F1CFEB8DEC0FFD2F1B
:10032000F11DE35AFF4FF0829FB7F8940B8FEA89D3
:10033000FB8980818062CFCFCF93DF93EC01888DE2
:100340008823B9F0AA89BB89E889F9898C9185FD50
:1003500003C0808186FD0DC00FB607FCF7CF8C91DE
:1003600085FFF2CF808185FFEDCFCE010E942D0168
:10037000E9CFDF91CF91089590E0FC01E859FF4F5C
:100380002491FC01EC55FF4F3491FC01E057FF4FE5
:10039000E491EE23C9F0222339F0233001F1A8F4CF
:1003A000213019F1223029F1F0E0EE0FFF1FE4585F
:1003B000FF4FA591B4918FB7F894EC91611126C0CD
:1003C00030953E233C938FBF08952730A9F0283005
:1003D000C9F0243049F7809180008F7D03C080915F
:1003E00080008F7780938000DFCF84B58F7784BDC6
:1003F000DBCF84B58F7DFBCF8091B0008F7780936A
:10040000B000D2CF8091B0008F7DF9CF3E2BDACFF4
:100410003FB7F8948091B3039091B403A091B503D2
:10042000B091B60326B5A89B05C02F3F19F00196E1
:10043000A11DB11D3FBFBA2FA92F982F8827BC013E
:10044000CD01620F711D811D911D42E0660F771F66
:10045000881F991F4A95D1F708958F929F92AF9266
:10046000BF92CF92DF92EF92FF924B015C010E940C
:1004700008026B017C010E9408026C197D098E093B
:100480009F09683E734081059105A8F321E0821A17
:100490009108A108B10888EEC80E83E0D81EE11CBF
:1004A000F11C81149104A104B10429F7FF90EF908D
:1004B000DF90CF90BF90AF909F908F9008952FB70F
:1004C000F8946091AF037091B0038091B103909163
:1004D000B2032FBF0895FC0120812EBD9B01215046
:1004E000310941F051810DB407FEFDCF4EB55EBD1F
:1004F0004193F5CF61507109860F971F0DB407FE28
:10050000FDCF2EB5FC0120830895E091E403F09126
:10051000E50380819091E303892B80830895E09126
:10052000E403F091E50390818091E30380958923B2
:10053000808308958EBD00000DB407FEFDCF8EB5FB
:100540000895AF92BF92CF92DF92EF92FF920F93F6
:100550001F93CF93DF93CDB7DEB728970FB6F894EC
:10056000DEBF0FBECDBF8C017B016A018091E70326
:100570008333E1F45801A40EB51EA016B10609F4A8
:100580006FC00E948F0280EF0E949A02812F0E940A
:100590009A02802F0E949A020F5F1F4FF7018191EC
:1005A0007F010E949A020E948502E7CF5B01A40EA0
:1005B000B51E8433C1F40E948F0219830A838D2DE6
:1005C00080688B83CC8264E070E0CE0101960E944B
:1005D0006B02AE14BF0409F441C0F70181917F01A1
:1005E0000E949A02F6CF0E948F020F3F110509F078
:1005F00028F419820A8384E08B830CC017FD17C08E
:1006000019820A8333E0169507953A95E1F7007E43
:100610000C600B8386E0C816D104A0F5F701DE015B
:100620001496EA15FB0599F081918D93FACFC801D4
:1006300026E0969587952A95E1F7807E19830A83AF
:100640000115104C10F48461D7CF8C61D5CFB60161
:100650006D5F7F4FCE0101960E946B020E94850262
:10066000C60128960FB6F894DEBF0FBECDBFDF914E
:10067000CF911F910F91FF90EF90DF90CF90BF909F
:10068000AF90089563E070E0CE0101960E946B0286
:10069000F70181917F010E949A02AE14BF04C1F755
:1006A000DDCFCF93DF931F92CDB7DEB7898341E0D3
:1006B00050E0BE016F5F7F4F90E080E00E94A1029A
:1006C0000F90DF91CF91089590E02091E7032333BD
:1006D00039F40C96982F990F990F990F80E008958F
:1006E0004896F8CFDA01E091E803F0E0FE2FEE271C
:1006F000E60FF71F90E0982F8827A901BD018E0F04
:100700009F1F0C94A102CF93DF9300D0CDB7DEB72B
:1007100079836A8322E030E0AE014F5F5F4F60E192
:1007200070E00E9472030F900F90DF91CF910895B7
:10073000CF93DF9300D0CDB7DEB779836A8322E011
:1007400030E0AE014F5F5F4F64E070E00E947203E3
:100750000F900F90DF91CF910895CF93DF931F9269
:10076000CDB7DEB72091E80330E0322F2227260FE5
:10077000371F90E0982F8827498341E050E0BE0161
:100780006F5F7F4F820F931F0E94A1020F90DF9136
:10079000CF910895CF93DF931F92CDB7DEB76983D2
:1007A000DC01ED91FC910280F381E02D41E050E00D
:1007B000BE016F5F7F4F09950F90DF91CF91089534
:1007C000CF93DF931F92CDB7DEB76983DC01ED9144
:1007D000FC910280F381E02D41E050E0BE016F5FAB
:1007E0007F4F09950F90DF91CF910895FC0194857B
:1007F000FB018485981303C081E0943008F080E009
:100800000895CF93DF931F92CDB7DEB76983DC01E4
:10081000ED91FC910280F381E02D41E050E0BE01BA
:100820006F5F7F4F09950F90DF91CF910895FC0185
:10083000768765870895DC01ED91FC91068CF78D34
:10084000E02D099591E089270895862F089581E08C
:100850008627089521E0FC018485843008F020E09B
:10086000822F08950895FF920F931F93CF93DF93E4
:10087000EB01FC01178A168A2A81211109C02B81FC
:10088000211106C02C81211103C02D81222301F1E9
:1008900041155105E9F08A01FC01F08C80E591E0F9
:1008A0000E948800AE014E5F5F4F24E030E06CE0B4
:1008B00070E08F2D0E947203B8018F2D0E94830378
:1008C00081E090E0DF91CF911F910F91FF9008950B
:1008D00080E0F7CFFC01848595850895FC0184892B
:1008E000958908952EE831E0FC0131832083FB01D6
:1008F0004089518962897389FC01428353836483EF
:1009000075830895DC01ED91FC91048CF58DE02D4B
:100910000994089590E080E00895FB010190002083
:10092000E9F73197AF01461B570BDC01ED91FC91C4
:100930000280F381E02D09948F929F92AF92BF9233
:10094000EF92FF920F931F93CF93DF93CDB7DEB754
:10095000A1970FB6F894DEBF0FBECDBF7C01FA01A0
:10096000CB0119A2223008F42AE08E010F5D1F4F3F
:10097000822E912CB12CA12CBF01A50194010E94C3
:100980009419F901CA016A300CF5605DD8016E93C3
:100990008D01232B242B252B79F790E080E01097F5
:1009A00021F0BD01C7010E948D04A1960FB6F894F5
:1009B000DEBF0FBECDBFDF91CF911F910F91FF9092
:1009C000EF90BF90AF909F908F900895695CDECFBD
:1009D0008F929F92AF92BF92CF92DF92EF92FF924F
:1009E0000F931F93CF93DF937C01EB016C0182E0A7
:1009F000C80ED11C4701E5E08E0E911C10E000E00E
:100A0000F60141916F0150E070E060E02AE0CE0114
:100A10000E949C045C01E881F9810190F081E02D45
:100A20006EE2CE0109958A0D9B1D080F191FC8148F
:100A3000D90431F7F701458150E070E060E02AE029
:100A4000CE010E949C04800F911FDF91CF911F91D6
:100A50000F91FF90EF90DF90CF90BF90AF909F905D
:100A60008F9008950F931F93CF93DF93EC010E9413
:100A70008D048C0160EA71E0CE010E948D04800F2C
:100A8000911FDF91CF911F910F9108950F931F93A5
:100A9000CF93DF93EC0188819981009759F02A81E7
:100AA0003B812617370730F081E0DF91CF911F910E
:100AB0000F9108958B016F5F7F4F0E94E11A00979D
:100AC00059F0998388831B830A832C813D81232BD2
:100AD00059F7FC011082E8CF80E0E7CFEF92FF9258
:100AE0000F931F93CF93DF936115710541F480E05D
:100AF000DF91CF911F910F91FF90EF9008954115D5
:100B00005105B1F07B01EC010C811D81040F151F13
:100B1000B8010E944605882351F3288139818C81D0
:100B20009D81B701820F931F0E94AE1B1D830C8312
:100B300081E0DECFCF93DF93EC018881998100972C
:100B400011F00E94581A198218821D821C821B8281
:100B50001A82DF91CF910895CF93DF93EC01FB01CF
:100B600001900020E9F73197AF01461B570B0E9417
:100B70006E05811103C0CE010E949A05CE01DF915E
:100B8000CF910895CF93DF93EC01FB014481558110
:100B9000608171810E946E05811103C0CE010E94A7
:100BA0009A05CE01DF91CF910895EF92FF920F93B6
:100BB0001F93CF93DF93EC017B018A01BA010E945E
:100BC000460581110BC0CE010E949A05CE01DF912E
:100BD000CF911F910F91FF90EF9008951D830C838B
:100BE000B701888199810E94AE1BF0CFEF92FF92EE
:100BF0000F931F93CF93DF93CDB7DEB762970FB6F6
:100C0000F894DEBF0FBECDBF8C01CB01F80111827D
:100C1000108213821282158214824AE09E012F5F95
:100C20003F4F7901B9010E942819F7010190002076
:100C3000E9F73197AF014E195F09B701C8010E946A
:100C4000D50562960FB6F894DEBF0FBECDBFDF911B
:100C5000CF911F910F91FF90EF900895CF93DF9365
:100C6000EC01FB018617970749F0608171816115DE
:100C7000710541F0448155810E94D505CE01DF9177
:100C8000CF9108950E949A05F9CFFC01118210823C
:100C90001382128215821482FB0101900020E9F771
:100CA0003197AF01461B570B0C94D505FC01808191
:100CB0009181009711F00C94581A0895AF92BF9249
:100CC000CF92DF92EF92FF920F931F93CF93DF9318
:100CD00000D000D0CDB7DEB78C016B017A018091D6
:100CE000E7038333E9F45B016801C40ED51EC01627
:100CF000D106A9F10E948F028FE00E949A02812FF3
:100D00000E949A02802F0E949A020F5F1F4F80E07C
:100D10000E949A02F50181935F010E948502E7CF4C
:100D2000843369F50E948F0219830A838F2D8F7790
:100D30008B83EC8264E070E0CE0101960E946B022E
:100D4000A70170E060E0C6010E94A71BE114F10456
:100D500021F0B701C6010E946B020E948502C70103
:100D60000F900F900F900F90DF91CF911F910F91E7
:100D7000FF90EF90DF90CF90BF90AF9008950E94CA
:100D80008F020F3F110509F030F419820A831B828C
:100D900063E070E0D1CF17FD0BC019820A8333E006
:100DA000169507953A95E1F7007E08600B83F0CF22
:100DB000C80126E0969587952A95E1F7807E1983EC
:100DC0000A830115104C18F480618B83E1CF886190
:100DD000FCCFCF93DF931F92CDB7DEB72091E8030E
:100DE00030E0322F2227260F371F90E0982F8827D8
:100DF00041E050E0BE016F5F7F4F820F931F0E9462
:100E00005E0689810F90DF91CF910895CF93C82F0F
:100E1000462F61E070E00E94AD0361E070E08C2F2E
:100E20000E94E9068111F9CFCF910895CF93C82F81
:100E300080E591E00E94880068E070E08C2FCF91FF
:100E40000C940607CF93C82F80E591E00E9488009C
:100E500060E170E08C2FCF910C940607CF93DF9365
:100E6000EC01888D843020F40E94220784E0888F72
:100E7000DF91CF91089563E070E00C94E906CF9381
:100E8000C82F80E591E00E9488008C2FCF910C94B0
:100E90003B07EF92FF920F931F93CF937C010BEDD3
:100EA00013E0C0E0F801219131918F01F7018481B5
:100EB00095812817390729F0CF5FC43099F780E072
:100EC00006C08C2F0E943F078431B1F781E0CF919B
:100ED0001F910F91FF90EF900895CF93DF93EC0156
:100EE0008C858430D0F40E943F07843189F08823B8
:100EF00079F0883169F021E08C3159F4E881F98189
:100F00000084F185E02DCE01099521E0892B09F4BB
:100F100020E0822FDF91CF91089580E0FBCFCF9228
:100F2000DF92EF92FF92CF93DF93EC018C858430B8
:100F300068F40E9416070E945F026B017C018C8599
:100F40000E943F07811109C084E08C87DF91CF9117
:100F5000FF90EF90DF90CF90089561E070E080E027
:100F600090E00E942D020E945F02AB01BC014C196F
:100F70005D096E097F098D859E85B0E0A0E0481768
:100F800059076A077B07D8F28C850E942207DCCFBD
:100F9000CF93FC01C08D80E591E00E94880060E263
:100FA00070E08C2F0E94060762E070E08C2F0E9498
:100FB000E90684FD16C062E070E08C2F0E94E9060D
:100FC00083FF0AC048E162E070E08C2F0E94AD030D
:100FD00080E090E0CF91089580E591E00E94880044
:100FE000E3CF40E162E070E08C2F0E94AD0381E02E
:100FF000F0CFCF93DF931F92CDB7DEB741E050E043
:10100000BE016F5F7F4F90E080E00E945E068981A5
:101010000F90DF91CF910895CF93DF93C4E1D0E09B
:101020000E94F907882361F061E070E080E090E0C1
:101030000E942D022197A1F780E0DF91CF910895C2
:1010400081E0FBCFCF92DF92EF92FF920F931F933D
:10105000CF93DF93CDB7DEB76A970FB6F894DEBFB4
:101060000FBECDBFFA012EE831E03A8329835FEF4E
:101070005B835C835D831E8238872F83C280D3802D
:10108000E480F580C986DA86EB86FC86FB01428126
:101090005381648175814F87588B698B7A8B3C8B28
:1010A0002B8BFC0182819381A481B5818D8B9E8BDA
:1010B000AF8BB88F8091E9038111A9C060E372E022
:1010C00080E090E00E942D02DFB6F8940AE910E07B
:1010D0003EEAE32E30E0F32E8091E603811122C038
:1010E000F8018491F7019491E82FF0E0EE0FFF1FD3
:1010F000EA57FF4FA591B4918C91982321F461E0B8
:101100008AE00E94BC018AE00E948B008CB580615D
:101110008CBD8CB580648CBD8DE00E948B008BE013
:101120000E948B008091E6038F5F8093E603DFBE11
:10113000F8010491E02FF0E0EE0FFF1FE458FF4F9D
:10114000859194919093E5038093E403F701E490F3
:10115000E092E3038AE00E948B000E94850280E512
:1011600091E00E94880084E38093E70380E80E9476
:1011700051030E940C08882309F47DC088E00E9476
:1011800051030E94F907883009F075C080E10E9480
:1011900051030E94F907803109F06DC080E00E9480
:1011A00051030E94F907182F811165C041E050E0FA
:1011B000BE01675E7F4F8FE190E00E945E06898DE1
:1011C000833009F058C080E48093E80342E06EE188
:1011D00070E0812F0E94AD0342E06FE170E0812F4B
:1011E0000E94AD031F5F143089F740E06EE170E0AC
:1011F000812F0E94AD0340E06FE170E0812F0E94DB
:10120000AD031F5F183089F781E08093E90380E523
:1012100091E00E94880046E050E06EE071E089E0D5
:1012200090E00E94A10244E050E0BE016B5E7F4F5F
:101230008FE090E00E94A10244E050E0BE01675FB1
:101240007F4F81E090E00E94A10244E050E0BE01A7
:101250006D5F7F4F85E090E00E94A1028F859889A5
:10126000A989BA898093A7049093A804A093A9049C
:10127000B093AA0469C087E38093E70380E80E94E3
:1012800051030E940C08882329F188E00E94510331
:101290000E94F9078830F1F480E10E9451030E9416
:1012A000F907182F8031B1F480E00E9451030E94A9
:1012B000F90781110FC041E050E0BE01675E7F4F2A
:1012C00089E390E00E945E06898D843019F41093C2
:1012D000E8039ACF83E38093E70380E80E945103F9
:1012E0000E940C08882371F180E10E9451030E9442
:1012F000F907803139F582E10E9451030E94F90714
:10130000823101F580E00E9451030E94F9078111AA
:1013100019C084E08093E80315E51A8F41E050E09E
:10132000BE01665E7F4F8BE190E00E94A102198FA3
:1013300041E050E0BE01675E7F4F8AE190E00E948D
:10134000A10262CF1092E7036A960FB6F894DEBF4F
:101350000FBECDBFDF91CF911F910F91FF90EF9006
:10136000DF90CF9008951F93CF93DF931F92CDB757
:10137000DEB7182F80E591E00E948800812F0E943F
:10138000640327E0129FF0011124E154FC4F2281F5
:101390003381377041E050E0BE016F5F7F4F820FB5
:1013A000931F0E945E0689810F90DF91CF911F915C
:1013B0000895FC01808D843040F4218D328D232BE3
:1013C00021F00E94B30990E008958FEF9FEF0895F8
:1013D000CF93DF93FC012485243028F08FEF9FEF1B
:1013E000DF91CF910895EC010190F081E02D008410
:1013F000F185E02D0995892B89F38C850E94B3092D
:1014000090E0EECFDA01E091E803F0E0FE2FEE2766
:10141000E60FF71F90E0982F8827A901BD018E0FD6
:101420009F1F0C945E068F929F92AF92BF92CF92B5
:10143000DF92EF92FF921F93CF93DF93CDB7DEB78A
:101440002C970FB6F894DEBF0FBECDBF2091E703F7
:1014500014E0222329F16B017C0180E591E00E94D8
:1014600088005E0127E0A20EB11C450110E0812F2B
:101470000E943B07F40181934F01882349F11F5FCC
:101480001430A9F710E0F50181915F018D31D9F099
:101490008831C9F08A518230B0F01F5F143099F75B
:1014A000812F2C960FB6F894DEBF0FBECDBFDF9113
:1014B000CF911F91FF90EF90DF90CF90BF90AF90B2
:1014C0009F908F90089560E170E0812F0E94060741
:1014D000A12EB12CF501EE0FFF1FE552FC4F11823A
:1014E000108283EE93E00197F1F742E870E060E04C
:1014F000812F0E94AD034FEF62E070E0812F0E94C8
:10150000AD03B601C114D10491F480910C01909106
:101510000D0101968115F0EC9F0708F45CC09093D3
:101520000D0180930C0160910C0170910D01812FD0
:101530000E94980386E0EAE1F1E0DE011196019055
:101540000D928A95E1F7F70183818F778C838481EF
:101550008D8385818E83A7014E5F5F4F24E030E04D
:101560006CE070E0812F0E947203B601812F0E940F
:10157000830326E030E0AE014F5F5F4F66E070E02E
:10158000812F0E94720361E070E0812F0E940607A4
:1015900027E02A9DC0012B9D900D11249C01215410
:1015A0003C4F7901F9011182108222E030E0AE0156
:1015B000455F5F4F68E270E0812F0E94020A8B85D1
:1015C0009C85982789279827F70193838283168221
:1015D0001582148265CF80E090ECA1CFCF92DF928C
:1015E000EF92FF920F931F93CF93DF9300D000D021
:1015F00000D0CDB7DEB78C016B017A01FC01808D84
:10160000843010F40E9422078EE891E09A83898347
:10161000F60182819381A481B5818B839C83AD8304
:10162000BE83B701CE0101960E94130AF801808F94
:101630008430A0F4F586E486128E118E81E0269621
:101640000FB6F894DEBF0FBECDBFDF91CF911F91D3
:101650000F91FF90EF90DF90CF90089580E0EFCF53
:10166000AF92BF92CF92DF92EF92FF920F931F93B0
:10167000CF93DF9300D000D000D0CDB7DEB7082FD6
:101680006B0180E591E00E9488009E012F5F3F4F33
:101690007901590110E0812F0E943B07F5018193E8
:1016A0005F01882341F11F5F1430A9F710E0F701B3
:1016B00081917F018D31D1F08831C1F08A51823022
:1016C000A8F01F5F143099F7812F26960FB6F89473
:1016D000DEBF0FBECDBFDF91CF911F910F91FF9065
:1016E000EF90DF90CF90BF90AF90089560E170E0F1
:1016F000812F0E940607E12EF12CF701EE0FFF1F4C
:10170000E552FC4F1182108283EE93E00197F1F7CE
:10171000402F70E060E0812F0E94AD034FEF62E048
:1017200070E0812F0E94AD03B601CD2889F480912D
:101730000C0190910D0101968115F0EC9F0798F135
:1017400090930D0180930C0160910C0170910D013B
:10175000812F0E94980361E070E0812F0E940607AC
:1017600027E02E9DC0012F9D900D11249C01215436
:101770003C4F7901F9011182108222E030E0AE0184
:101780004B5F5F4F68E270E0812F0E94020A8D81FB
:101790009E81982789279827F70193838283168251
:1017A0001582148291CF80E090ECCACFCF92DF9265
:1017B000EF92FF921F93CF93DF93EC017B016A01BD
:1017C0008C85843048F40E943F07882319F08C856B
:1017D0000E94160784E08C87F70182819381A4819F
:1017E000B5810097A105B10551F490E080E0DF914B
:1017F000CF911F91FF90EF90DF90CF9008958F3F92
:101800009F4FAF4FBF4F89F38091E703811103C012
:1018100084E08C87EACF70E060E081E20E94300BC8
:10182000182F8C87843008F780E591E00E948800AB
:10183000A7014E5F5F4F24E030E06CE070E0812F45
:101840000E947203B601812F0E94830364E070E05E
:10185000812F0E9406070E945F026B017C018C852C
:101860000E943F07873109F18C31F9F0882309F490
:10187000BCCF0E945F02AB01BC014C195D096E092F
:101880007F098D859E85B0E0A0E084179507A607A7
:10189000B70738F061E070E080E090E00E942D0230
:1018A000DECF8C850E942207B3CF81E090E09FCFEE
:1018B0000F931F93CF93DF93EC018B01888D8430BE
:1018C00010F40E9422078091E703811107C094E081
:1018D000988FDF91CF911F910F910895B80182E009
:1018E0000E94300B888F843030F41D870C871A8E4D
:1018F000198E81E0EECF80E0ECCF0F931F93CF9352
:101900002091E703222349F18C01FC016481758158
:1019100081E20E94300BC82F8430F8F480E591E01A
:101920000E9488008C2F0E943B07833131F08C2F5E
:10193000CF911F910F910C94160762E070E08C2FED
:101940000E940607F80184819581EC2FF0E0EE0FEC
:10195000FF1FE552FC4F91838083CF911F910F9120
:1019600008957F928F929F92AF92BF92CF92DF9213
:10197000EF92FF920F931F93CF93DF9300D0CDB7D9
:10198000DEB7782E8B014A01590122E030E0AE012A
:101990004F5F5F4F64E270E00E94020AE980FA80C4
:1019A000FE24EF24FE24E00EF11E970137704091D3
:1019B000E703072D10E0433309F042C0085F1F4FD3
:1019C000102F0027110F110F110FC901800F911F48
:1019D0004733C9F1A9014A0D5B1D4130584098F1C8
:1019E00060E078E06B01C21AD30AA601B4010E943C
:1019F000A102A5014C195D09B4016C0D7D1DC80142
:101A00000E94A102EA0CFB1CF982EA8222E030E08B
:101A1000AE014F5F5F4F64E270E0872D0E9472035A
:101A20000F900F90DF91CF911F910F91FF90EF904A
:101A3000DF90CF90BF90AF909F908F907F90089550
:101A4000005F1F4FBDCFA501B401DACFEF92FF9227
:101A50001F93CF93DF9300D0CDB7DEB7182F22E0CE
:101A600030E0AE014F5F5F4F60E270E00E94020A1B
:101A7000E980FA80FE24EF24FE2422E030E0AE016B
:101A80004F5F5F4F60E270E0812F0E94020A898100
:101A90009A81982789279827E816F90689F487E01C
:101AA000189FF0011124E154FC4FF582E482C70134
:101AB0000F900F90DF91CF911F91FF90EF900895BD
:101AC0007C01DBCF1F93CF93DF93182F80E591E04C
:101AD0000E948800812F0E94260DEC01812F0E9418
:101AE0003B07873121F08C3111F0D0E0C0E0CE010E
:101AF000DF91CF911F910895CF93DF93EC018C85F7
:101B0000843060F40E943F07873111F08C3131F44A
:101B10008C850E94620D8115984088F3DF91CF91EA
:101B20000895FC018485843010F40C94620D90E0DB
:101B300080E00895CF92DF92EF92FF921F93CF93B0
:101B4000DF93182F7B01EA014130584010F0C0E0CC
:101B5000D8E080E591E00E948800812F0E94260D48
:101B60006C01812F0E943B07873111F08C3121F5E8
:101B7000CC16DD0670F380E591E00E9488009E019E
:101B8000A70170E060E0812F0E94B10C60E270E07C
:101B9000812F0E94060762E070E0812F0E94E90613
:101BA00084FD0DC0812F0E943B078823B9F080E59A
:101BB00091E00E948800EFCFD0E0C0E0DCCF40E1B0
:101BC00062E070E0812F0E94AD03CE01DF91CF91E2
:101BD0001F91FF90EF90DF90CF900895D0E0C0E08C
:101BE000F4CF0F931F93CF93DF938C01EA01FC0195
:101BF0008485843048F40E949A0D892B39F481E061
:101C000090E0F80193838283D0E0C0E0CE01DF91C1
:101C1000CF911F910F910895FB01448155816081FF
:101C200071810C94F10D0F931F93CF93DF93EC010F
:101C30000E940C0E8C0160EA71E0CE010E948D04BE
:101C4000800F911FDF91CF911F910F9108959F9267
:101C5000AF92BF92CF92DF92EF92FF920F931F93BA
:101C6000CF93DF938C015B01942EE52EFC01C68897
:101C7000D788F08C80E591E00E9488008F2D0E942B
:101C8000260DC92DDE2D8C179D0708F4EC019E0151
:101C9000A501B6018F2D0E94B10CF80186899789A4
:101CA0008C0F9D1F978B868BCE01DF91CF911F915B
:101CB0000F91FF90EF90DF90CF90BF90AF909F90EB
:101CC0000895FF920F931F93CF93DF9300D0CDB76A
:101CD000DEB7F82E22E030E0AE014F5F5F4F66E2E4
:101CE00070E00E94020A09811A811027012710273B
:101CF00022E030E0AE014F5F5F4F66E270E08F2D73
:101D00000E94020A89819A819827892798270817B3
:101D1000190749F4C8010F900F90DF91CF911F91DF
:101D20000F91FF9008958C01E3CF1F93CF93DF9322
:101D3000182F87E0189FE0011124C154DC4F8881DF
:101D40009981009761F480E591E00E948800812FDD
:101D50000E94610E2E81821B910999838883DF91F5
:101D6000CF911F910895AF92BF92CF92DF92EF92E1
:101D7000FF920F931F93CF93DF93EC017B01809130
:101D8000E703811120C01B821A8288EE93E0A0E055
:101D9000B0E08C839D83AE83BF8384E291E099831E
:101DA000888384E08C8788EE93E09E878D87CE01C0
:101DB000DF91CF911F910F91FF90EF90DF90CF9027
:101DC000BF90AF9008958BEDC82E83E0D82E10E021
:101DD00094E0B92EA12CD6012D913D916D01F70112
:101DE000848195812817390791F4812F0E943F073C
:101DF000082F873111F08C3139F5812F0E94950E13
:101E0000892B59F50C3119F4812F0E9416071F5F99
:101E1000143009F7A11008C0D701ED91FC9100849E
:101E2000F185E02DC70109951B821A8288EE93E0A7
:101E3000A0E0B0E08C839D83AE83BF8384E291E019
:101E400099838883BC86AFCF843149F08111DFCF7D
:101E5000F601329711821082DACFB12ED8CFAA24A0
:101E6000A394D5CF8F929F92AF92BF92CF92DF92E1
:101E7000EF92FF921F93CF93DF93CDB7DEB72F97EB
:101E80000FB6F894DEBF0FBECDBF5C014B017A01E7
:101E90008091E7038823A1F1B501CE0101960E944C
:101EA000B30E8BEDC82E83E0D82E10E0F601219101
:101EB00031916F01F501848195812817390751F41B
:101EC000812F0E943F07873129F4A701B401812F98
:101ED0000E949A0D1F5F143049F7C7012F960FB665
:101EE000F894DEBF0FBECDBFDF91CF911F91FF9061
:101EF000EF90DF90CF90BF90AF909F908F9008951C
:101F0000F12CE12CEACFFC018485843010F40C9490
:101F1000950E90E080E008954F925F927F928F92AD
:101F20009F92AF92BF92CF92DF92EF92FF920F9368
:101F30001F93CF93DF9300D0CDB7DEB7782E6B0120
:101F40004A01A82EB12C27E0829FC0011124FC0178
:101F5000E154FC4F7F010081118180E591E00E94F6
:101F600088000815190554F4872D0E94610EF701A9
:101F700026818C01021B11091183008301151105B3
:101F800019F5872D0E943B07843159F0882349F0C9
:101F900001E010E08C3111F410E000E011950195A2
:101FA0001109C8010F900F90DF91CF911F910F91F0
:101FB000FF90EF90DF90CF90BF90AF909F908F9069
:101FC0007F905F904F900895801691060CF48401E5
:101FD00087E08A9DF0018B9DF00D1124E154FC4FA8
:101FE000E280F380C114D10451F12701F7E05F22B0
:101FF000872D0E946403840D951D2091E7032733EC
:1020000009F453C09801240D351D2130384008F4DF
:102010004CC020E038E0490184189508A401B601BD
:102020000E945E062601480C591C6801C818D90890
:10203000872D0E946403A601B2010E945E06E00E95
:10204000F11E87E08A9DF0018B9DF00D1124E15473
:10205000FC4FF382E28220813181201B310B3183DE
:1020600020838681800F912F911D8A3F910510F466
:10207000232BF1F487E08A9DF0018B9DF00D112454
:10208000E154FC4F1682F982EA8222E030E0AE0190
:102090004F5F5F4F68E270E0872D0E94720360E43B
:1020A00070E0872D0E9406077CCFA801B601C5CF3E
:1020B000868377CFCF93DF93FC01218D328D21155D
:1020C000310529F48FEF9FEFDF91CF910895EC0157
:1020D000808D4217530708F0A9010E948C0F181633
:1020E000190684F7298D3A8D281B390B3A8F298FD1
:1020F000EBCF0F931F93CF93DF931F92CDB7DEB734
:10210000FC01218D328D232B41F48FEF9FEF0F9037
:10211000DF91CF911F910F9108958C0141E050E024
:10212000BE016F5F7F4FFC01808D0E948C0F1816DF
:1021300019065CF7F801818D928D0197928F818F3E
:10214000898190E0E4CF0F931F93CF93DF93CDB7B6
:10215000DEB728970FB6F894DEBF0FBECDBF8C0157
:10216000D80159964D915C915A974115510551F0FE
:10217000ED91FC91048CF58DE02D70E060E0C801DC
:102180000995EECFF801808D0E94950E892BB1F153
:1021900048E050E0BE016F5F7F4FD80158968C91A8
:1021A0000E948C0F18161906F4F4D801509684E09A
:1021B000FE01319601900D928A95E1F78D8190E0B4
:1021C000982F88272E81820F911DF801958B848B83
:1021D0008F81282F30E0322F22278885820F932F7E
:1021E000911D928F818F28960FB6F894DEBF0FBE97
:1021F000CDBFDF91CF911F910F91089590E080E0C6
:10220000F2CF4F925F926F927F928F929F92AF9296
:10221000BF92CF92DF92EF92FF920F931F93CF93D3
:10222000DF93CDB7DEB763970FB6F894DEBF0FBE6E
:10223000CDBF7C016B013A01FB0120E090E080E022
:102240006AE03191332309F461C040ED430F4A3015
:1022500008F04DC0689FA001699F500D1124CA016C
:10226000C097830F911D37FD9A958F3F910549F3D4
:1022700040F3F70142815381648175818091B304F9
:102280009091B404A091B504B091B60448175907D1
:102290006A077B0709F40DC28701085F1F4F0E9480
:1022A0005F026F7077277C5FC8010E94580C8130F5
:1022B00009F004C28EE891E09A838983F701828154
:1022C0009381A481B5818B839C83AD83BE8345E3D9
:1022D00050E0BE016F5F7F4FC8010E943304892B1D
:1022E000A9F5D12CC12CC8010E942E0717C03E327F
:1022F00009F0BFCF233009F4BCCFD301A20FB11D29
:1023000012968C932F5F90E080E09BCF233009F0F2
:10231000B0CFF3018583CC24C394D12CC60163963E
:102320000FB6F894DEBF0FBECDBFDF91CF911F91E6
:102330000F91FF90EF90DF90CF90BF90AF909F9064
:102340008F907F906F905F904F9008950E945F02F2
:10235000F7017783668342E050E0B7016A5F7F4F01
:10236000C8010E94270E81E090E09A83898342E0B1
:1023700050E0BE016F5F7F4FC8010E94270E80E0D2
:1023800091E09A83898342E050E0BE016F5F7F4F06
:10239000C8010E94270E1A82198242E050E0BE0155
:1023A0006F5F7F4FC8010E94270E42E050E0BE01E0
:1023B0006F5F7F4FC8010E94270E42E050E0BE01D0
:1023C0006F5F7F4FC8010E94270E5601F601808182
:1023D000882301F16501F60181912F01882311F015
:1023E0008E32B1F446018A189B081814190474F44B
:1023F0008D8641E050E0BE01635F7F4FC8010E94BF
:10240000270EA401B501C8010E94270E5201DECF9C
:102410006201E1CF1D8641E050E0BE01635F7F4F66
:10242000C8010E94270EC12CDD24D394DA82C98210
:1024300042E050E0BE016F5F7F4FC8010E94270E4F
:10244000DA82C98242E050E0BE016F5F7F4FC8016F
:102450000E94270EC8010E94C807892B09F441CFAA
:10246000F3E0AF2EB12C230122E0420E511CD4C068
:10247000F7014281538164817581808D918DA28D98
:10248000B38D481759076A077B0709F008C1848D87
:10249000958DC59709F003C181A192A15DEFC52E6D
:1024A000DD24DA940C970CF4ADC04CE050E0BE0192
:1024B0006F5F7F4FC8010E945A108B819C819827C3
:1024C000892798279A8B898BF70146815781298123
:1024D0003A814217530709F0E7C097FFE5C08F70B4
:1024E00092703BEFC32EDD24DA94892B09F08AC069
:1024F0006F8078847624672476242AEFC22EDD2428
:10250000DA946114710409F47DC0D12CC12C8D8141
:102510009E81982789279827C816D906F8F441E0A4
:1025200050E0BE01635F7F4FC8010E945A104D8585
:10253000442331F050E070E060E0C8010E945A107E
:102540008D858111ECCF44E050E070E060E0C8017F
:102550000E945A10FFEFCF1ADF0AD9CF912C812C9D
:1025600041E050E0BE016D5E7F4FC8010E945A10ED
:102570004B89842F807C09F06CC0442331F050E0FB
:1025800070E060E0C8010E945A108B898111E8CF89
:1025900042E050E0BE01615F7F4FC8010E945A10C7
:1025A00042E050E0BE01635F7F4FC8010E945A10B5
:1025B00044E050E070E060E0C8010E945A1042E040
:1025C00050E0BE016F5E7F4FC8010E945A108F8598
:1025D000988949895A898115914009F043C0CD8471
:1025E000DE84DC24CD24DC2481E0C816D104D1F5BE
:1025F0004115544009F04AC044E050E0B201C8011E
:102600000E945A1021E0A21AB10809F46CCEFFEF23
:10261000CF16DF0609F067CE0E945F023B014C0136
:10262000C8010E94A310181619060CF421CF0E94AD
:102630005F0266197709880999096938734181052C
:10264000910548F562E370E080E090E00E942D0281
:10265000E7CF41E050E070E060E0C8010E945A100E
:102660001B8A93CF54274527542770E060E0C801A8
:102670000E945A10FFEF8F1A9F0A6814790409F01C
:102680006FCF96EFC92EDD24DA94BCCFE7EFCE2EC4
:10269000DD24DA94B7CFCC24CA94DC2CB3CF6EEF10
:1026A000C62EDD24DA94AECF4CEFC42EDD24DA94AE
:1026B000A9CF8EEFC82EDD24DA9430CED12CC12CD8
:1026C0002DCECF92DF92EF92FF920F931F93CF9375
:1026D000DF93CDB7DEB7AF970FB6F894DEBF0FBE6E
:1026E000CDBF7C016A010EE811E01A8309831C86C4
:1026F0001B8688EE93E0A0E0B0E08D879E87AF87D1
:10270000B88B82E591E09A878987188F0F8B198E95
:102710001A8E1B8E1C8E84E089A31BA70AA71CA6F9
:102720001DA61EA61FA68091A7049091A804A091A3
:10273000A904B091AA048EA39FA3A8A7B9A78B83CD
:102740009C83AD83BE8318861F82AE01465D5F4FBA
:10275000CE0101960E94011181309105B1F4D7019B
:10276000ED91FC910488F589E02D1DA30CA38CA5A7
:102770009DA5AEA5BFA58EA39FA3A8A7B9A7A60197
:10278000BE016C5D7F4FC7010995AF960FB6F894F7
:10279000DEBF0FBECDBFDF91CF911F910F91FF9094
:1027A000EF90DF90CF900895CF92DF92EF92FF925B
:1027B0000F931F93CF93DF93CDB7DEB7AF970FB6CD
:1027C000F894DEBF0FBECDBF8C016B017A018EE89D
:1027D00091E09A8389831B821C821D821E821C8643
:1027E0001B8648EE53E060E070E04D875E876F87A0
:1027F000788B22E531E03A872987988F8F8B198E65
:102800001A8E1B8E1C8E24E029A39BA78AA71CA6C8
:102810001DA61EA61FA6D8011C968C91843060F4BC
:102820000E943F07882321F0F80184850E94160743
:1028300084E0D8011C968C938091A7049091A80401
:10284000A091A904B091AA048EA39FA3A8A7B9A799
:102850008B839C83AD83BE8318861F82AE01465D49
:102860005F4FB601CE0101960E9401110097C1F0A1
:10287000D801ED91FC910684F785E02D8EE891E07A
:102880009DA38CA38CA59DA5AEA5BFA58EA39FA33C
:10289000A8A7B9A7A701BE016C5D7F4FC801099524
:1028A000AF960FB6F894DEBF0FBECDBFDF91CF91CC
:1028B0001F910F91FF90EF90DF90CF900895CF93ED
:1028C000DF931F92CDB7DEB741E050E0BE016F5FEE
:1028D0007F4FFC0184850E948C0F1816190634F472
:1028E000898190E00F90DF91CF9108958FEF9FEF56
:1028F000F9CFFC018485843010F40C948C0F90E0A7
:1029000080E008950F931F93CF93DF9300D0CDB74E
:10291000DEB7FC0124852430E0F48C0180E591E0F1
:102920000E94880022E030E0AE014F5F5F4F60E11F
:1029300070E0F80184850E94020A89819A819827B3
:10294000892798270F900F90DF91CF911F910F91BA
:10295000089590E080E0F6CFEF92FF920F931F93DF
:10296000CF93DF9300D000D0CDB7DEB78C017B01D1
:10297000FB0184858430A8F08EE891E0F801918312
:1029800080831282138214821582C8010F900F90E7
:102990000F900F90DF91CF911F910F91FF90EF90CB
:1029A000089580E591E00E94880024E030E0AE01C7
:1029B0004F5F5F4F6CE070E0F70184850E94020A70
:1029C0008EE891E0F8019183808389819A81AB81BF
:1029D000BC8182839383A483B583D7CF0F931F9346
:1029E000CF93DF9300D0CDB7DEB7FC012485243030
:1029F000E0F48C0180E591E00E94880022E030E064
:102A0000AE014F5F5F4F64E070E0F80184850E9483
:102A1000020A89819A819827892798270F900F9019
:102A2000DF91CF911F910F91089590E080E0F6CF54
:102A30001F920F920FB60F9211242F933F934F9333
:102A40005F936F937F938F939F93AF93BF93EF9316
:102A5000FF938AEE93E00E942D01FF91EF91BF91C9
:102A6000AF919F918F917F916F915F914F913F9126
:102A70002F910F900FBE0F901F9018951F920F92DD
:102A80000FB60F9211242F938F939F93EF93FF9381
:102A9000E091FA03F091FB038081E0910004F09152
:102AA000010482FD1BC09081809103048F5F8F73AE
:102AB00020910404821741F0E0910304F0E0E65114
:102AC000FC4F958F80930304FF91EF919F918F911D
:102AD0002F910F900FBE0F901F9018958081F4CF0B
:102AE0001F920F920FB60F9211242F933F938F9343
:102AF0009F93AF93BF938091AF039091B003A09148
:102B0000B103B091B2033091AE0323E0230F2D3710
:102B100058F50196A11DB11D2093AE038093AF031C
:102B20009093B003A093B103B093B2038091B30329
:102B30009091B403A091B503B091B6030196A11D85
:102B4000B11D8093B3039093B403A093B503B093E6
:102B5000B603BF91AF919F918F913F912F910F90AD
:102B60000FBE0F901F90189526E8230F0296A11D07
:102B7000B11DD2CFEAEEF3E01382128288EE93E029
:102B8000A0E0B0E084839583A683B7838CE791E0CF
:102B90009183808385EC90E09587848784EC90E036
:102BA0009787868780EC90E0918B808B81EC90E01A
:102BB000938B828B82EC90E0958B848B86EC90E0FB
:102BC000978B868B118E128E138E148EE7E8F4E0AD
:102BD0008EE891E0918380831282138214821582A1
:102BE000EDE8F4E0918380831282138214821582CF
:102BF000E3E9F4E0918380831282138214821582C8
:102C0000E9E9F4E0918380831282138214821582B1
:102C1000EFE9F4E09183808312821382148215829B
:102C2000EBEAF4E09183808312821382148215828E
:102C3000E5EAF4E091838083128213821482158284
:102C4000E1EBF4E091838083128213821482158277
:102C5000E7EBF4E091838083128213821482158261
:102C6000E9ECF4E09183808312821382148215824E
:102C7000E3ECF4E01382128284E991E09183808393
:102C800080E590E09583848362EA71E08DEB94E0C7
:102C90000C944506CF93DF93CDB7DEB7A1970FB65F
:102CA000F894DEBF0FBECDBF789484B5826084BD3A
:102CB00084B5816084BD85B5826085BD85B5816040
:102CC00085BD80916E00816080936E0010928100BE
:102CD0008091810082608093810080918100816079
:102CE000809381008091800081608093800080913A
:102CF000B10084608093B1008091B00081608093C6
:102D0000B00080917A00846080937A0080917A008C
:102D1000826080937A0080917A00816080937A004B
:102D200080917A00806880937A001092C100E091CF
:102D3000FA03F091FB0382E08083E091F603F091C7
:102D4000F7031082E091F803F091F9038FEC808390
:102D500010920204E091FE03F091FF0386E080836D
:102D6000E091FC03F091FD03808180618083E0911C
:102D7000FC03F091FD03808188608083E091FC0377
:102D8000F091FD03808180688083E091FC03F091E5
:102D9000FD0380818F7D808312E0812F0E948B0054
:102DA0001F5F1A30D1F78EE891E09A8389834091B2
:102DB00008015091090160910A0170910B014B8348
:102DC0005C836D837E83998B888B40910401509145
:102DD000050160910601709107014A8B5B8B6C8B3A
:102DE0007D8B9F8B8E8B8091000190910101A09132
:102DF0000201B0910301888F998FAA8FBB8FAE011A
:102E00004F5F5F4FBE01605F7F4FCE0146960E94CD
:102E1000220883EC94E00E947D0C9924939420E096
:102E2000C22E20E0D22E63EC74E0CE0101960E9407
:102E3000B30E8D85843008F0FBC1CE0101960E944F
:102E40006D07882309F4F4C1CE0101960E94830F17
:102E5000892B99F3CE0101960E945F14182F80915F
:102E6000C1049091C2048436910558F4188B198AD4
:102E700041E050E0BE01605F7F4F8DEB94E00E9427
:102E80006E051A30D1F663EA71E0CE0101960E9418
:102E9000320563EB71E0CE0101960E94320560EAD3
:102EA00071E0CE0101960E948D046BEC71E0CE01C1
:102EB00001960E94320562ED71E0CE0101960E94FA
:102EC000320569ED71E0CE0101960E94320569EF8D
:102ED00071E0CE0101960E94320561E072E0CE0100
:102EE00001960E94320568E072E0CE0101960E94D0
:102EF00032056FE072E0CE0101960E94320569E46E
:102F000072E0CE0101960E94320587EBE82E83E045
:102F1000F82E570192E0892EB501675B7340CE0110
:102F200040960E94F6056CEC72E0CE0146960E9437
:102F30004506BE01605F7F4FCE0146960E94C205E6
:102F40001D8E1C8E1F8E1E8E19A218A2BC01CE01D2
:102F50004C960E942E06CE0146960E945606CE0141
:102F600040960E945606198A188A1B8A1A8A1D8A58
:102F70001C8ABE01645E7F4FCE0140960E942E06E1
:102F800061ED72E0CE0140960E94AC052091C10433
:102F90003091C204232B79F06090BD047090BE0480
:102FA000FC0160817181C3010E94B51B8C0106196F
:102FB0001709892B11F40FEF1FEFCE0140960E94E5
:102FC000560617FD02C0F5019082198A188A1B8ADD
:102FD0001A8A1D8A1C8ABE01645E7F4FCE0140960C
:102FE0000E942E0664E672E0CE0140960E94AC0577
:102FF0002091C1043091C204232B09F416C1009121
:10300000BD041091BE04FC0160817181C8010E9461
:10301000B51B009709F409C19C01201B310B8901E4
:10302000CE0140960E94560617FD02C0F50110829F
:10303000F50161915F01882D0E94BC01CE014C9683
:103040000E9456068394FAE08F1266CF10E000E0EB
:10305000F70161917F0170E0CE0146960E94F6056E
:10306000198A188A1B8A1A8A1D8A1C8ABE016A5EFE
:103070007F4FCE0140960E942E0668E672E0CE0198
:1030800040960E94AC05BC01CE0101960E94130E31
:10309000CE0140960E945606CE0146960E945606E4
:1030A000B801CE0140960E94F6056CE672E0CE01B2
:1030B00046960E944506BE01605F7F4FCE01469650
:1030C0000E94C205BC01CE0101960E94130ECE01E2
:1030D00046960E945606CE0140960E945606B801BA
:1030E000CE0140960E94F6056CE772E0CE0146964E
:1030F0000E944506BE01605F7F4FCE0146960E944A
:10310000C205BC01CE0101960E940C0ECE0146966E
:103110000E945606CE0140960E94560664ED72E06B
:10312000CE0101960E948D0465EF72E0CE010196FA
:103130000E943205B801CE0140960E94F60561E07A
:1031400073E0CE0146960E944506BE01605F7F4F48
:10315000CE0146960E94C205BC01CE0101960E9496
:10316000130ECE0146960E945606CE0140960E944E
:103170005606B801CE0140960E94F60562E173E062
:10318000CE0146960E944506BE01605F7F4FCE018C
:1031900046960E94C205BC01CE0101960E940C0E0B
:1031A000CE0146960E945606CE0140960E945606D3
:1031B0006BE673E0CE0101960E948D046EE873E029
:1031C000CE0101960E94320565E973E0CE010196B9
:1031D0000E9432050F5F1F4F0830110509F038CFEC
:1031E0006AE973E0CE0101960E9432056EE973E050
:1031F000CE0101960E94320566EA73E0CE01019687
:103200000E94320561E070E080E090E00E942D02B3
:10321000CE0101960E948F0750E040E062EA71E023
:103220008DEB94E00E94D50508CE0FEF1FEFF8CE8E
:10323000C114D10409F4F7CD0E941901882309F4BF
:10324000F2CD0E940000EFCD8DEB94E00C94560679
:10325000BB274A3031F4992322F4BDE29095819541
:103260009F4F0C943419BB27FB015527AA27880FC1
:10327000991FAA1FA41710F0A41B83955051B9F7EA
:10328000A05DAA3308F0A95DA193009779F7B11169
:10329000B1931192CB010C944D19DC01FC01672F05
:1032A00071917723E1F7329704C07C916D9370831D
:1032B0006291AE17BF07C8F308952F923F924F92C5
:1032C0005F926F927F928F929F92AF92BF92CF92B6
:1032D000DF92EF92FF920F931F93CF93DF93CDB7BF
:1032E000DEB7CA1BDB0B0FB6F894DEBF0FBECDBF37
:1032F00009942A88398848885F846E847D848C8408
:103300009B84AA84B984C884DF80EE80FD800C8110
:103310001B81AA81B981CE0FD11D0FB6F894DEBFF3
:103320000FBECDBFED010895A1E21A2EAA1BBB1B53
:10333000FD010DC0AA1FBB1FEE1FFF1FA217B30781
:10334000E407F50720F0A21BB30BE40BF50B661F97
:10335000771F881F991F1A9469F76095709580955B
:1033600090959B01AC01BD01CF010895EE0FFF1FA9
:103370000590F491E02D09940F931F93CF93DF9361
:103380008230910510F482E090E0E091D104F09158
:10339000D20430E020E0B0E0A0E0309799F42115AD
:1033A000310509F44AC0281B390B24303105D8F502
:1033B0008A819B816115710589F1FB019383828369
:1033C000FE0111C0408151810281138148175907C4
:1033D000E0F04817590799F4109761F012960C9392
:1033E000129713961C933296CF01DF91CF911F91C4
:1033F0000F9108950093D1041093D204F4CF2115B6
:10340000310551F04217530738F0A901DB019A0149
:10341000BD01DF01F801C1CFEF01F9CF9093D204D4
:103420008093D104CDCFFE01E20FF31F81939193DE
:103430002250310939832883D7CF2091CF0430918E
:10344000D004232B41F420911601309117013093C1
:10345000D0042093CF04209114013091150121153F
:10346000310541F42DB73EB7409118015091190133
:10347000241B350BE091CF04F091D004E217F30741
:10348000A0F42E1B3F0B2817390778F0AC014E5FD4
:103490005F4F2417350748F04E0F5F1F5093D0043D
:1034A0004093CF04819391939FCFF0E0E0E09CCFD5
:1034B000CF93DF930097E9F0FC01329713821282D9
:1034C000A091D104B091D204ED0130E020E010973A
:1034D000A1F420813181820F931F2091CF0430917C
:1034E000D0042817390709F061C0F093D004E093A5
:1034F000CF04DF91CF910895EA01CE17DF07E8F5F9
:103500004A815B819E0141155105B1F7E901FB83B9
:10351000EA8349915991C40FD51FEC17FD0761F457
:10352000808191810296840F951FE9019983888398
:10353000828193819B838A83F0E0E0E012968D91F3
:103540009C9113970097B9F52D913C911197CD015E
:103550000296820F931F2091CF043091D004281738
:10356000390739F6309751F51092D2041092D104F0
:10357000B093D004A093CF04BCCFD383C283408147
:103580005181840F951FC817D90761F44E5F5F4FB3
:1035900088819981480F591F518340838A819B817B
:1035A000938382832115310509F0B0CFF093D204C3
:1035B000E093D1049ECFFD01DC01C0CF13821282C3
:1035C000D7CFB0E0A0E0E7EEFAE10C945F198C01F0
:1035D000009751F4CB010E94BC198C01C801CDB7F2
:1035E000DEB7E0E10C947B19FC01E60FF71F9C01AC
:1035F00022503109E217F30708F49DC0D901CD919B
:10360000DC911197C617D70798F0C530D10530F374
:10361000CE0104978617970708F3C61BD70B22978E
:10362000C193D1936D937C93CF010E94581AD6CF4A
:103630005B01AC1ABD0A4C018C0E9D1EA091D104F9
:10364000B091D204512C412CF12CE12C109731F582
:103650008091CF049091D0048815990509F05CC041
:103660004616570608F058C0809114019091150134
:10367000009741F48DB79EB7409118015091190100
:10368000841B950BE817F90708F055C0F093D00498
:10369000E093CF04F90171836083A0CF8D919C9159
:1036A000119712966C90129713967C901397A81509
:1036B000B90559F56C0142E0C40ED11CCA14DB04F3
:1036C00020F1AC014A195B09DA011296159780F0D6
:1036D0006282738251834083D9016D937C93E1149C
:1036E000F10471F0D7011396FC93EE93129776CF05
:1036F00022968C0F9D1FF90191838083F301EFCFF8
:10370000F093D204E093D10469CF4816590608F427
:103710002C017D01D3019ACFCB010E94BC197C0101
:10372000009749F0AE01B8010E949E1BC8010E949B
:10373000581A870153CF10E000E050CFFB01DC01A5
:1037400002C001900D9241505040D8F70895DC011D
:1037500001C06D9341505040E0F70895FB01DC013A
:1037600001900D920020E1F70895FB01519155233E
:10377000A9F0BF01DC014D9145174111E1F759F462
:10378000CD010190002049F04D9140154111C9F340
:10379000FB014111EFCF81E090E00197089510E027
:1037A000CDE5D0E004C0FE010E94B6192196CE35C9
:1037B000D107C9F7F894FFCFC0A802F0C0A8020251
:1037C000FFFFFF0000C0DEADBEEFFEED0000D30442
:1037D000800001005E000000000000000104F10D07
:1037E000910D7C0D830F5F14E809D60BD413791467
:1037F0008F076D072A0427042504F6031B04EE1423
:10380000AC148214170400000000CA03270E8A04B7
:10381000AE00AA007910D909580CEE0A2E0733041D
:103820006113C807A3105A10820472046E046A045C
:10383000000000004F01AF00DC009C010D01EB0017
:10384000FF0000000000E80400000000E003320F69
:103850008A0489047D0C49070D0A00485454502FEE
:10386000312E3120323030204F4B00436F6E746563
:103870006E742D547970653A20746578742F68746D
:103880006D6C003C48544D4C3E003C484541443E24
:10389000003C5449544C453E45746865726E6574ED
:1038A0002041726475696E6F3C2F5449544C453EFB
:1038B000003C2F484541443E003C424F44593E00A5
:1038C0003C6872202F3E003C48313E41726475696D
:1038D0006E6F2045746865726E65742052656C6108
:1038E00079202D20436F6E74726F6C20706172614D
:1038F000207365727669646F7265733C2F48313E40
:10390000003C70207374796C653D22666F6E742D77
:1039100073697A653A33307078223E006F666600CC
:103920002D2D2D003C696E707574206E616D653DA6
:10393000224F6E0022207374796C653D22626163B0
:103940006B67726F756E643A7265643B20666F6E6A
:10395000742D73697A653A33307078203B20636F39
:103960006C6F723A776869746522206F6E636C6958
:10397000636B3D226C6F636174696F6E2E68726554
:10398000663D272F3F627574746F6E006F6E27223D
:1039900020747970653D22627574746F6E22207692
:1039A000616C75653D224F6E22202F3E00207C20E9
:1039B0007C207C207C207C20003C696E707574200B
:1039C0006E616D653D224F66660022207374796CCE
:1039D000653D226261636B67726F756E643A6772F0
:1039E00065656E3B20666F6E742D73697A653A3338
:1039F0003070783B20636F6C6F723A7768697465DA
:103A000022206F6E636C69636B3D226C6F6361741F
:103A1000696F6E2E687265663D272F3F62757474FC
:103A20006F6E006F6666272220747970653D226292
:103A30007574746F6E222076616C75653D224F66D9
:103A40006622202F3E003C6272202F3E003C6272B4
:103A50003E003C703E003C2F424F44593E003C2FFC
:063A600048544D4C3E00ED
:107E0000112484B714BE81FFF0D085E080938100F7
:107E100082E08093C00088E18093C10086E0809377
:107E2000C20080E18093C4008EE0C9D0259A86E02C
:107E300020E33CEF91E0309385002093840096BBD3
:107E4000B09BFECF1D9AA8958150A9F7CC24DD24C4
:107E500088248394B5E0AB2EA1E19A2EF3E0BF2EE7
:107E6000A2D0813461F49FD0082FAFD0023811F036
:107E7000013811F484E001C083E08DD089C08234E0
:107E800011F484E103C0853419F485E0A6D080C0E4
:107E9000853579F488D0E82EFF2485D0082F10E0AE
:107EA000102F00270E291F29000F111F8ED06801E7
:107EB0006FC0863521F484E090D080E0DECF843638
:107EC00009F040C070D06FD0082F6DD080E0C81688
:107ED00080E7D80618F4F601B7BEE895C0E0D1E017
:107EE00062D089930C17E1F7F0E0CF16F0E7DF06D8
:107EF00018F0F601B7BEE89568D007B600FCFDCFD4
:107F0000A601A0E0B1E02C9130E011968C91119780
:107F100090E0982F8827822B932B1296FA010C0160
:107F200087BEE89511244E5F5F4FF1E0A038BF0790
:107F300051F7F601A7BEE89507B600FCFDCF97BE46
:107F4000E89526C08437B1F42ED02DD0F82E2BD052
:107F50003CD0F601EF2C8F010F5F1F4F84911BD097
:107F6000EA94F801C1F70894C11CD11CFA94CF0C13
:107F7000D11C0EC0853739F428D08EE10CD085E9AC
:107F80000AD08FE07ACF813511F488E018D01DD067
:107F900080E101D065CF982F8091C00085FFFCCF94
:107FA0009093C60008958091C00087FFFCCF809118
:107FB000C00084FD01C0A8958091C6000895E0E648
:107FC000F0E098E1908380830895EDDF803219F02E
:107FD00088E0F5DFFFCF84E1DECF1F93182FE3DFCA
:107FE0001150E9F7F2DF1F91089580E0E8DFEE27F6
:047FF000FF270994CA
:027FFE00040479
:00000001FF
